:1000000002008B0236D9FFFFFFFFFF32FFFFFFFF29
:10001000FFFFFF32FFFFFFFFFFFFFF32FFFFFFFF8A
:10002000FFFFFF32FFFFFFFFFFFFFF32FFFFFFFF7A
:10003000FFFFFF022FA6FFFFFFFFFF32FFFFFFFFC3
:10004000FFFFFF32FFFFFFFFFFFFFF023E04FFFF46
:10005000FFFFFF020693FFFFFFFFFF02096DFFFF97
:10006000FFFFFF32FFFFFFFFFFFFFF023029FFFF0F
:10007000FFFFFF32FFFFFFFFFFFFFF32FFFFFFFF2A
:10008000FFFFFF0239FD021A03E473758157124422
:10009000F7E58260030200867917E94400601B7A65
:1000A0000190478378777593FCE493F2A308B80036
:1000B000020593D9F4DAF27593FFE478FFF6D8FDE0
:1000C0007800E84400600A79007593F0E4F309D8F9
:1000D000FC7877E8440C600C790D90F000E4F0A314
:1000E000D8FCD9FA750D00020086AF83E58290F541
:1000F00054F0EFA3F075E10490DF3BE0FFBF01F89F
:1001000090F554E0FEA3E0FF90DF06EEF075E1020B
:1001100090DF3BE0FFBF0DF8227E007F0090FC28BF
:10012000E0FCA3E0FD8E028F03C3EA9CEB9D503AF6
:10013000EE2400FCEF34F0FD90FC26E0F513A3E084
:10014000F5148A828B83C007C006C005C004124321
:1001500039AA82AB83D004D005D006D0078C828D1B
:1001600083EAF00EBE00B60F80B322E58290F5560A
:10017000F0E0FFE59CC39FF59CE59C24FAF59C43C9
:100180009E10D2BA22AF9E74EF5FF59E22AF83E538
:100190008290F55AF0EFA3F090FC21E060139044B8
:1001A000FB12309890FC21E0F5821230DA7582EF74
:1001B0002290FC217406F090DF3BE0FFBF13028029
:1001C000F6C29190F557E0FEA3E0FF90FC88EEF0B8
:1001D000EFA3F090FC8274F1F0E4A3F090FC1874AB
:1001E00072F074F3A3F090FC80E4F0A3F090FC3381
:1001F000F090FC7CF090FC32F090FC7E04F0E4A3E4
:10020000F090FC7D7402F090F55CE4F09000001238
:10021000033290F55AE0FEA3E0FF90F559E0FD7B34
:10022000007C008D017A00C3EB99EC9A50548B024C
:10023000EA75F0F0A42EF9E43FFA90F55C74F0F062
:1002400089828A83C007C006C005C004C0031203A8
:1002500032AA82D003D004D005D006D007EA601BB2
:1002600090454DC002123098D00290FC21E4F08AF3
:1002700082C0021230DAD0028A82220BBB00A40CA8
:1002800080A190FC8BE0FF30E33390FC88E0FEA37C
:10029000E0FFEE540F602690FC88E0FEA3E05306DA
:1002A0000F7F007410C39EFEE49FFF90FC88E0FC6B
:1002B000A3E0FD90FC88EE2CF0EF3DA3F090FC88CD
:1002C000E0FEA3E0FFC374FF9EE49F502390FC88F0
:1002D000E0FEA3E090DF02EEF090DF04E0FF74FCAC
:1002E0005FF0E0FF74024FF090FC8A7401F080121E
:1002F00090FC88E0FEA3E0FF90DF02EEF090FC8A25
:10030000E4F075E1037E607FEA90DF3BE0FDBD1322
:100310000280091EBEFF011FEE4F70EDD291EE4F1D
:10032000700C90FC467413F09045651230987582FD
:100330000022AF83E58290F55DF0EFA3F090F55CCD
:10034000E0FF240F500A9045761230987582FF2204
:10035000EF703E90FC32E4F090FC32E0FE90FC7DC9
:10036000E0FDC3EE9D502190FC32E075F0F1A42435
:1003700072F58274F335F0F583E4F090FC32E0FE20
:100380000E90FC32EEF080D090FC32E4F0758200EA
:100390002290FC21E0FE601DBE061E90FC32E06053
:1003A0001890DF3BE0FEBE1302800E90FC21740724
:1003B000F07582ED227582ED2290FC32E075F0F14D
:1003C000A42472FD74F335F0FE8D828E83E0600A02
:1003D00090FC467418F07582FE228D828E8374FF25
:1003E000F090FC32E075F0F1A42472FD74F335F066
:1003F000FE0DBD00010E7C0090F55DE0FAA3E0FB70
:100400008A138B148C158F037F008B168F178D82A8
:100410008E838CF0C007C003124260D003D00790D7
:10042000FC8BE0FE20E3030204DA90FC32E075F07E
:10043000F1A42472FD74F335F0FE0DBD00010E90A1
:10044000FC5DEBF0EFA3F08D828E83123F7EAE82D7
:1004500090F55CEEF090FC8BE0FF530704BF043F87
:1004600090FC32E075F0F1A42472FD74F335F0FFD6
:100470000DBD00010F8E037C0090FC8BE0FA53024F
:10048000F090FC61EDF0EFA3F090FC63EBF0ECA3D7
:10049000F090FC65EAF08D828F83123FB8803B902C
:1004A000FC32E075F0F1A42472FD74F335F0FF0D19
:1004B000BD00010F7C0090FC8BE0FB5303F090FC2F
:1004C00068EDF0EFA3F090FC6AEEF0ECA3F090FC86
:1004D0006CEBF08D828F8312400190FC32E075F05E
:1004E000F1A42472FE74F335F0FF90F55CE0FD8E0C
:1004F000828F83F090FC32E0FF0F90FC32EFF0909F
:10050000FC7DE0FEEFB5060590FC32E4F07582005C
:1005100022AF83E58290F55FF0EFA3F090FC21E03D
:10052000FF6014BF0102800F90459012309890FC3C
:1005300021E0F5821230DA12018590FC2AE4F0A362
:10054000F090FC2AE0FEA3E0FF8E828F8312061358
:1005500090DF3BE0FFBF0DF890DF3AE0FF53077FED
:10056000BF6000402790FC2AE0FEA3E0FF0EBE0023
:10057000010F90FC2AEEF0EFA3F0D29190000A1246
:100580003C84C29190000A123C8480B590FC217496
:1005900002F090FC47E0FCA3E0FDA3E0A3E090FCA8
:1005A0002CECF0EDA3F090F55FE0FEA3E0FF90FCF3
:1005B00030EEF0EFA3F02290FC21E4F090FC47E055
:1005C000FCA3E0FDA3E0A3E090FC2CECF0EDA3F095
:1005D0002290FC217404F090FC47E0FCA3E0FDA312
:1005E000E0A3E090FC2CECF0EDA3F02290FC217451
:1005F00005F090FC34E4F0A3F090FC47E0FCA3E0AD
:10060000FDA3E0A3E090FC2CECF0EDA3F0758200DC
:1006100002016BAF83E58290F561F0EFA3F090F5F6
:1006200061E0FEA3E0FFEE2400F582EF34F0F583F5
:10063000E0FF7E008F828E830200EAAF83E5829026
:10064000F563F0EFA3F090F563E0FEA3E0FF90F315
:1006500070EEF0EFA3F0222290FC2AE0FEA3E0FF70
:100660000EBE00010F90FC2AEEF0EFA3F0C3EE9453
:1006700070EF9403400790FC2AE4F0A3F090FC2A6A
:10068000E0FEA3E0FFEE2400F582EF34F0F583E016
:10069000F58222C021C0E0C0F0C082C083C007C084
:1006A00006C005C004C003C002C001C000C0D075B0
:1006B000D00090FC1DE02401F0A3E03400F090FC99
:1006C00022E0FEA3E0FF90FC1DE0FCA3E0FDECB502
:1006D000060BEDB5070790FC1DE4F0A3F090FC1DA0
:1006E000E0FEA3E0FFBE0005BF0002800BBE0105D7
:1006F000BF0002806802085590FC1DE0FEA3E08E5A
:10070000077E00AC9C7D00EC4206ED420790FC2E7B
:10071000EEF0EFA3F090FC2AE0FEA3E0FF0EBE0097
:10072000010F90FC2AEEF0EFA3F090FC28E0FCA370
:10073000E0FDC3EE9CEF9D400790FC2AE4F0A3F09F
:1007400090DF3BE0FFBF130302095090FC2AE0FE5C
:10075000A3E0FF8E828F8312061302095090FC21C2
:10076000E0FFBF05028003020950900019123C848B
:1007700090F567741CF090FC2AE0FEA3E090F56809
:10078000EEF090FC2AE0A3E090F569F090F56A7431
:1007900042F090F56B744CF090F56C7441F090F56C
:1007A0006D7448F090F56E7442F090F56F744CF0F3
:1007B00090F5707441F090F5717448F090F5727492
:1007C00042F090F573744CF090F5747441F090F52C
:1007D000757448F090F5767442F090F577744CF0AB
:1007E00090F5787441F090F5797448F090F57A744A
:1007F00042F090F57B744CF090F57C7441F090F5EC
:100800007D7448F090F57E7442F090F57F744CF062
:1008100090F5807441F090F5817448F090F5827401
:1008200020F090FC36741CF0E4A3F090FC38F0A3A8
:10083000F090FC3AF0A3F090F56812335290FC343B
:10084000E0FEA3E0FF0EBE00010F90FC34EEF0EFDF
:10085000A3F002095090FC21E0FFBF03028065BFB6
:1008600004028008BF0502800302095090FC2CE0BE
:10087000FEA3E0FF90FC47E0FAA3E0FBA3E0FCA3AB
:10088000E0FD8E008F01E4FEFFEAC398FAEB99FBCE
:10089000EC9EFCED9FFDC374649AE49BE49CE49D94
:1008A00050229045BE12309890FC217405F090FCC7
:1008B00047E0FCA3E0FDA3E0FEA3E0FF90FC2CECEE
:1008C000F0EDA3F090FC33E075F0F1A42472FE7417
:1008D000F335F0FF8E828F83E06075900019123C33
:1008E0008490FC33E075F0F1A42472FE74F335F0CB
:1008F000FF90DF04E05401FDB40100E4332EFDE479
:100900003FFC8E828F83E090FC36F0E4A3F090FCF5
:1009100038F0A3F090FC3AF0A3F08D828C83123370
:100920005290FC33E075F0F1A42472F58274F33533
:10093000F0F583E4F090FC33E0FF0F90FC33EFF030
:10094000BF0200400590FC33E4F09045DC12309883
:10095000D0D0D000D001D002D003D004D005D00632
:10096000D007D083D082D0F0D0E0D021323290FCBA
:1009700021E4F090FC32F090FC33F090FC2AF0A3DC
:10098000F090FC267453F0E4A3F090FC287453F02C
:10099000E4A3F090FC2EF0A3F090FC2CF0A3F090D8
:1009A000FC227406F0E4A3F090FC24F0A3F090FC89
:1009B00030F0A3F090FC34F0A3F012011990FC2168
:1009C000E4F0759DDC859E9E439E0443CB1022027D
:1009D000096E900DF6121F5490FC47E4F0A3F0A3AB
:1009E000F0A3F01209CF90F583E4F090F58474122F
:1009F000F074F8A3F02290FC21E0FFBF0003020D89
:100A00002BBF0103020BFCBF0203020AFABF030360
:100A1000020D2BBF0403020D2BBF0503020D0CBFFB
:100A2000060122BF40028006BF410280422275E1DA
:100A30000490DF3BE0FFBF01F890DF0374E5F09026
:100A4000DF047404F090DF077412F090DF08E4F024
:100A500090DF147410F090DF17E0FF74C04FF09037
:100A6000FC217441F090F5847412F074F8A3F090B6
:100A7000F583E4F090FC34E0FEA3E0FF90F583E022
:100A8000FDFB7C00C3EB9EEC9F504590DF06EDF034
:100A900075E10490DF3BE0FFBF01F875E10290DFF4
:100AA0003BE0FFBF0DF8900002123C8490F584E01B
:100AB000FEA3E0FF90F583E02EFEE43FFF90DF3AD7
:100AC000E0FD8E828F83F090F583E02401F080A416
:100AD00075E10490DF3BE0FFBF01F890FC34E0FEDD
:100AE000A3E08E3375340090F584E0F535A3E0F58E
:100AF00036753201758243021A35E50E7003020B1A
:100B0000EA90FC45740DF0AF9A74FE5FF59AE50E1D
:100B100020E403020BEA90FC217403F090FC1FE038
:100B2000FEA3E08E8212016B9045EA12309890FC91
:100B30001FE0FEA3E0FF8E828F831230F590F81144
:100B4000E025E0FEE42412FFEE34F8FE8F828E836F
:100B500012309890F811E0FFB40100E433FF90F5F3
:100B600083F0EF2416FDE434FCFE8D828E83E0706A
:100B70007290DF04E0FE30E0378F06EE2EFDE424B5
:100B800012F582ED34F8F583E0FE8E337534008F74
:100B900006EE2EFDE42412FEED34F8FD74012EF570
:100BA00035E43DF536753201758242121A358022E0
:100BB00090DF02E0FE8E33E4F534EF2FFEE42412E2
:100BC000FFEE34F8FE8F358E367532017582421293
:100BD0001A3590F583E0FF2416F582E434FCF583A2
:100BE0007401F0AF0E74EF5FF50ED20010AF02C2C9
:100BF00000750E00A20092AF439A0122E50E700329
:100C0000020CFA90FC45740DF0AF9A74FE5FF59AF1
:100C1000E50E20E403020CFA90F811E0FF90F58352
:100C2000B40100E433F09045FF12309890F583E072
:100C300025E0FEE42412FFEE34F8FE8F828E83124C
:100C400030F590F583E025E0FEE42412FFEE34F861
:100C5000FE8F828E8312309890F811E0FFB401006D
:100C6000E433FF90F583F0EF2416FDE434FCFE8DB1
:100C7000828E83E0707290DF04E0FE30E0378F06F2
:100C8000EE2EFDE42412F582ED34F8F583E0FE8EBD
:100C9000337534008F06EE2EFDE42412FEED34F899
:100CA000FD74012EF535E43DF5367532017582424D
:100CB000121A35802290DF02E0FE8E33E4F534EF25
:100CC0002FFEE42412FFEE34F8FE8F358E36753297
:100CD00001758242121A3590F583E0FF2416F582E1
:100CE000E434FCF5837401F0D20010AF02C200AF0F
:100CF0000E74EF5FF50EA20092AFD20010AF02C2E9
:100D000000750E00A20092AF439A012290FC34E0DD
:100D1000FEA3E0FF90FC28E0FCA3E0FDC3EE9CEF07
:100D20009D50012290FC217404F022E50E700122F6
:100D300090FC45740DF0E50E543070012290F811CE
:100D4000E0FFB40100E433FF90F583F0EF2416FDDB
:100D5000E434FCFE8D828E83E06003020DE390DFBD
:100D600004E0FE30E0378F06EE2EFDE42412F5821B
:100D7000ED34F8F583E0FE8E337534008F06EE2EE9
:100D8000FDE42412FEED34F8FD74012EF535E43D4A
:100D9000F536753201758242121A35803590FC772E
:100DA000E0E0600A90FC7AE0FDA3E0FE800890DFBE
:100DB00002E0FCFD7E00EF2FFCE42412FFEC34F88F
:100DC000FC8F358C367532018D338E34758242122C
:100DD0001A3590F583E0FF2416F582E434FCF583A0
:100DE0007401F0D20010AF02C200AF0E74CF5FF5F5
:100DF0000EA20092AF2290F7C3E0FDA3E0FEA3E0B5
:100E0000FF90F7C8E0FCBC4202800302179190F704
:100E1000C9E0FC24BE5003021783EC240A83F58248
:100E2000EC244683F583E4738383FC4483AF6A88B0
:100E30009BD40D3174128383D8577EF116299509FE
:100E40003E83838383838383E871B8AED1838383B6
:100E50008383838383838383838383838383838362
:100E60008383838383838383ACE617170E11170F65
:100E70001010101011111112171714151515161640
:100E800016141517171717171717161716151517FE
:100E900017171717171717171717171717171717E2
:100EA000171717171717171717170E0EC007C006B3
:100EB000C005120185D005D006D00790FC217440F2
:100EC000F08D828E838FF0124498FC7B0090FC346E
:100ED000ECF0EBA3F090F7E9EDF0EEA3F0758201F2
:100EE000122DEA02179190FC21E4F090F7E9EDF061
:100EF000EEA3F0758201122DEA02179190FC21E019
:100F000060099046191230980217918D828E838F56
:100F1000F0124498FC7B0090F586ECF0EBA3F08D8A
:100F2000828E83A3E0FAE4F92CFCEA3BFB90F58681
:100F3000ECF0EBA3F08D828E83A3A3A3A3E0FA8A47
:100F40000889098D828E83A3A3A3A3A3E0FAE425D5
:100F500008F508EA3509F50990FC1AE4F0A3F074E5
:100F6000062DF9E43EFA90FC36ECF0EBA3F090FC91
:100F700038E4F0A3F090FC3AE508F0E509A3F08925
:100F8000828A83C007C006C005123352AC82D005E6
:100F9000D006D0078D828E838FF0EC12430190F73C
:100FA000E9EDF0EEA3F0758201122DEA0217918DA2
:100FB000828E838FF012449890FC7AF0E4A3F08D37
:100FC000828E83A3E0FB7C0090FC7AE0F9A3E0FA38
:100FD00090FC7AEC29F0EB3AA3F090FC7AE0A3E0E5
:100FE00090FC7AE0F5F0A3E045F0604B90FC77745C
:100FF00001F090FC78E0A3E090FC78E0F5F0A3E04D
:1010000045F0704712328B90FC7AE0FBA3E0FC9035
:10101000FC78EBF0ECA3F090FC78E0FBA3E090DF31
:1010200002EBF090DF04E0FC74FC5CF0E0FC740286
:101030004CF0123241801490FC77E4F090FC78F090
:10104000A3F090FC7AF0A3F012328B90F7C8E0FC8A
:1010500090F7C9E0F53275357A7536FC7533017550
:1010600034008C82121A350217918D828E838FF094
:1010700012449890FC8BF090F7E9EDF0EEA3F07538
:101080008201122DEA02179190F7E9748BF074FC3B
:10109000A3F0758201122DEA02179190FC8BE0FCFF
:1010A0005304F090FC597406F090FC5AECF08D82D9
:1010B0008E838FF0C007C006C005123F26D005D032
:1010C00006D00790F7E9EDF0EEA3F0758210122D2F
:1010D000EA02179190FC8BE0FC5304F090FC5974E9
:1010E00004F090FC5AECF08D828E838FF0C007C024
:1010F00006C005123F26D005D006D00790F7E9EDCF
:10110000F0EEA3F0758210122DEA0217918D828EF7
:10111000838FF012449890FC8CF0E0FC74015CF03A
:1011200090F7E9EDF0EEA3F0758201122DEA0217B7
:101130009190F7E9748CF074FCA3F0758201122D84
:10114000EA0217918D828E838FF0124498FC7B0007
:101150008C828B83C007C006C00512063BD005D029
:1011600006D00790F7E9EDF0EEA3F0758201122D9D
:10117000EA02179190FC21E0601C8D828E838FF033
:1011800074EF12430190F7E9EDF0EEA3F0758201E0
:10119000122DEA0217918D828E838FF0124498FCF3
:1011A0007B0090F586ECF0EBA3F08D828E83A3E0BC
:1011B000FAE42CFCEA3BFB90F586ECF0EBA3F08D17
:1011C000828E83A3A3E0FA90FC1AE4F0A3F07403E8
:1011D0002DF8E43EF990F557ECF0EBA3F090F559BB
:1011E000EAF088828983C007C006C00512018DAC71
:1011F00082D005D006D0078D828E838FF0EC12430B
:101200000190F7E9EDF0EEA3F0758201122DEA02EC
:1012100017918D828E838FF0124498FB7C0090F59D
:1012200086EBF0ECA3F0EB4C600302131A90FC8801
:10123000E0A3E090FC88E0F5F0A3E045F0601C90AE
:10124000DF3BE0FABA1314900028C007C006C005BF
:10125000123C84D005D006D00780D290FC88E0A351
:10126000E090FC88E0F5F0A3E045F0606B90463E2E
:10127000C007C006C00512309890FC88E0F9A3E0D2
:10128000FA89828A831230F590F372E0F582123087
:10129000DA90F463E0F5821230DAD005D006D00798
:1012A00090FC467412F08D828E838FF074EC1243A2
:1012B00001C291C007C006C00512321CD005D0067D
:1012C000D00790FC21E4F090F7E9EDF0EEA3F07583
:1012D0008201122DEA021791C29190FC21E4F08D57
:1012E000828E838FF0124301904652C007C006C021
:1012F0000512309890FC1AE0F9A3E0FA89828A83FB
:101300001230F5D005D006D00790F7E9EDF0EEA346
:10131000F0758201122DEA02179190FC21E0FABAD1
:1013200006028061904662C007C006C00512309870
:10133000D005D006D00790FC46E0FABA121B8D8289
:101340008E838FF074EC12430190F7E9EDF0EEA379
:10135000F0758201122DEA801F90FC467417F08D03
:10136000828E838FF074EF12430190F7E9EDF0EE77
:10137000A3F0758201122DEAC29112321C90FC2159
:10138000E4F002179174012DF9E43EFA90F55CEB5C
:10139000F089828A83C007C006C005120332AC827E
:1013A000D005D006D0078D828E838FF0EC124301DA
:1013B0008D828E838FF0124498FBEC603BBBFE0263
:1013C000803690466BC007C006C005123098D00525
:1013D000D006D0078D828E838FF0124498F582C09C
:1013E00007C006C0051230DAC29112321CD005D0F7
:1013F00006D00790FC21E4F090F7E9EDF0EEA3F0C1
:10140000758201122DEA0217918D828E838FF01260
:101410004498FB7C0090F586EBF0ECA3F0C374F0ED
:101420009BE49C501990457612309890F7E97486A9
:10143000F074F5A3F0758201122DEA02179190FC69
:1014400032E075F0F1A42472F974F335F0FA898270
:101450008A83E0601990467812309890F7E9748694
:10146000F074F5A3F0758201122DEA0217918B003A
:1014700089828A83E8F090FC32E075F0F1A424724E
:10148000F974F335F0FA09B900010A890A8A0B7573
:101490000C0074012DF9E43EFA89138A14751500C5
:1014A0008B168C17850A82850B83850CF01242609F
:1014B00090FC32E0FC0C90FC32ECF0BC02004005E9
:1014C00090FC32E4F090F7E97486F074F5A3F075BF
:1014D0008201122DEA0217918D828E838FF01244C1
:1014E00098FC7B0090FC26ECF0EBA3F090FC26E04F
:1014F000F9A3E0FAC374709C74039B402E74022D10
:10150000FBE43EFC8B138C1475150089168A17902A
:10151000F00075F00012426090F7E97426F074FC58
:10152000A3F0758202122DEA02179190F7E97499DF
:10153000F07446A3F0758208122DEA02179190FC10
:1015400026E0FBA3E090F7E97400F074F0A3F08BC1
:1015500082122DEA0217911206587B008B83120625
:101560001390FC2AE0FBA3E0FC90F7E9EB2400F0E9
:10157000EC34F0A3F0758201122DEA0217918D82EE
:101580008E838FF0124498FC7B008C828B83C00783
:10159000C006C0051200EAD005D006D00790F7E9D2
:1015A000EDF0EEA3F0758201122DEA02179175821B
:1015B00000C007C006C00512016BD005D006D007D9
:1015C00090F7E9EDF0EEA3F0758201122DEA021713
:1015D00091C007C006C005120185D005D006D0070E
:1015E00090F7E9EDF0EEA3F0758201122DEA0217F3
:1015F000918D828E838FF0124498FC7B0090FC22A8
:10160000ECF0EBA3F090F7E9EDF0EEA3F0758201BA
:10161000122DEA02179190F7E97422F074FCA3F0FE
:10162000758204122DEA0217918D828E838FF0C08D
:1016300007C006C005123057D005D006D0078D82EE
:101640008E838FF0124498F582C007C006C0051241
:1016500030DAD005D006D0078D828E838FF0124409
:1016600098FC7B008C138B148B157516158B1790BB
:10167000FC2175F000C007C006C005124260D0050D
:10168000D006D00790F7E9EDF0EEA3F075821512C1
:101690002DEA02179190FC1DE0FBA3E0FC90FC24D6
:1016A000EBF0ECA3F090F7E97421F074FCA3F07573
:1016B0008215122DEA0217918D828E838FF01244CB
:1016C00098FC7B008C828B83C007C006C005120586
:1016D00011D005D006D00790F7E9EDF0EEA3F07534
:1016E0008201122DEA02179190FC47E0F9A3E0FA7B
:1016F000A3E0A3E090FC2CE9F0EAA3F08D828E83B6
:101700008FF0124498FC90FC21F090FC21E0FBEC5F
:1017100024FA404DEB2B2B90171B7302172D021749
:101720002D02172D02174F02174F02173EC007C098
:1017300006C005120185D005D006D0078023C0075A
:10174000C006C0051205ECD005D006D00780127582
:101750008200C007C006C00512016BD005D006D0BC
:101760000790F7E9EDF0EEA3F0758201122DEA8003
:101770002090F7E97421F074FCA3F0758201122D1A
:10178000EA800E90F7E9EDF0EEA3F0758201122DDC
:10179000EA900000222290F7D1E0FFBF013990F7D4
:1017A000B1E0FEA3E0FF90F7D4E0FCA3E0FD90F7EA
:1017B000B4E0FAA3E0FBEA4B601D8E828F83E0F970
:1017C000A3AE82AF838C828D83E9F0A3AC82AD831C
:1017D0001ABAFF011B80DF90F7BAE054FDF090DEEB
:1017E00011E0FF74084FF022AE82AF83E0FD20E7E6
:1017F000030218E18E828F83A3E0FD601DBD01020C
:10180000802ABD0202803BBD0302805ABD040280D3
:1018100076BDFE030218A30218E175370275380081
:1018200090FC4575F000121CEE0218E190DE00E01D
:10183000FD7C007539288C3A8D828C83121D6202E2
:1018400018E18E828F83A3A3E0FCA3E0FD74062E33
:10185000F582E43FF583E0F539A3E0F53A8C828D1B
:1018600083121D62807B8E048F057B0074062EF52B
:1018700082E43FF583E0F537A3E0F5388C828D8371
:101880008BF0121CEE805A90F7B1E0FBA3E0FCA3B2
:10189000E0FD753910753A008B828C838DF0121D36
:1018A00062803E74022EFEE43FFF7D00754BA17501
:1018B0004C46754D807513048D148E828F838DF088
:1018C000123D50E5828583F045F06012D29190017F
:1018D0002C123C84C29190012C123C84800375C967
:1018E000839000002290DF2FE4F090DF30F090DF53
:1018F00031F090DF00740CF090DF01744EF090DF57
:101900000274FFF090DF037440F090DF04E4F09085
:10191000DF05F090DF06F090DF077406F090DF0837
:10192000E4F090DF097424F090DF0A743AF090DF5D
:101930000B74F1F090DF0C74CAF090DF0D74A3F01B
:1019400090DF0E7401F090DF0F7423F090DF1074BD
:1019500011F090DF117436F090DF127407F090DF11
:1019600013740FF090DF147418F090DF1514F090DA
:10197000DF16746CF090DF177403F090DF1874407A
:10198000F090DF197491F090DF1A7456F090DF1B1D
:101990007410F090DF1C74E9F090DF1D742AF09051
:1019A000DF1EE4F090DF1F741FF090DF237488F0D7
:1019B00090DF247431F090DF257409F090DF2E74ED
:1019C000C0F090DF07C4F090DF097425F090DF0AC3
:1019D0007495F090DF0B7455F090DF1A74B6F090A8
:1019E000DF1B7410F090DF1C74EAF090DF1D742A86
:1019F000F090DF1EE4F090DF1F741FF022123DD242
:101A0000023DFE1219FD12313F123E2B121CB9127B
:101A100032C41209D2121CE8D2AF121B8CD29190A0
:101A20000002123C84C29190000A123C84122E1BC8
:101A30001209F680F8AF827E017D0090DE0E7405FB
:101A4000F090FC457412F0EE7006ED7003021B82FC
:101A50007B107C2790DE11E0FA30E00D90FC46749C
:101A600001F01BBBFF011C80EBEB4C7014D291907A
:101A700003E8123C84C2919003E8123C8490FFFF7B
:101A800022BE01317E0090DE2A7440F0EFF0E53294
:101A9000F0AB337C00EBF0E534F0C3E533943BE589
:101AA00034940040087B3B7C007D018021AB33AC4B
:101AB000347D008019C3E5339440E5349400400838
:101AC0007B407C007D018006AB33AC347D007480AC
:101AD000252942D6852682852783A935AA368A00FC
:101AE000E8F0852682852783A3E9F085268285276D
:101AF00083A3A374DEF0852682852783A3A3A37422
:101B00002AF0852682852783A3A3A3A3A3EBFAF05B
:101B1000852682852783A3A3A3A3E054E0F085262E
:101B200082852783A3A3A3A3A3A3A3E0543F444098
:101B3000F0852682852783A3A3A3A3A3A3A3E054B0
:101B4000CFF0E52942D6E52942D7E52955D160FAFB
:101B5000E529F452D190DE0E7405F090DE11E0FA22
:101B600074014AF0E533C39BF533E5349CF534EB5F
:101B70002535F535EC3536F53690FC457413F00215
:101B80001A4790FC457414F090000022E52270057D
:101B9000122E1B80F722AFBE747F5FF5BE43BE805E
:101BA00090DE0B74F7F090DE0774FFF090DE09F022
:101BB000438C10AF8C74FE5FF58CD2BD439A0275D6
:101BC0008900C2C5758B00C2E843A90243B90285EA
:101BD0002682852783A3A3A3A3E054E0F085268271
:101BE000852783A3A3A3A3A3A3E0549F4420F08548
:101BF0002682852783A3A3A3A3A3A3A3E04408F07D
:101C0000852682852783A3A3A3A3A3A3A3E054FCD3
:101C10004401F090DE01E0FF74FE5FF0E4F525F58D
:101C200023F524F52290DE0EF090DE107404F0907F
:101C3000DE13F090F7BBE4F090F7BAF090F7AFF056
:101C4000A3F090F7B17488F074F5A3F0E4A3F090DA
:101C5000F7B4F0A3F090F7B6F090F7B7F090F7B8BC
:101C6000F0A3F090DE0E7405F090DE107408F09092
:101C7000DE13F090DE12E0FF74014FF090DE15E00D
:101C8000FF74014FF090F7CDE4F090F7CCF090F7AF
:101C9000C1F0A3F090F7C374A8F074F5A3F0E4A327
:101CA000F090F7C6F0A3F090F7C8F090F7C9F09065
:101CB000F7CAF0A3F0439A0222123169858228857F
:101CC00028F005F07401800225E0D5F0FBF529E548
:101CD0002875F008A424F9F52674F735F0F5279057
:101CE000FC457402F0021B96D29022C29022AFF003
:101CF000AE83E58290F7D6F0EEA3F0EFA3F090F775
:101D0000BBE06034D2919003E8123C84C29190030E
:101D1000E8123C84D2919003E8123C84C291900373
:101D2000E8123C84D2919003E8123C84C291900363
:101D3000E8123C8490FFFF2290F7D6E0FDA3E0FE7E
:101D4000A3E0FF90F7ACEDF0EEA3F0EFA3F090F777
:101D5000AFE537F0E538A3F090F7BB7401F09000E1
:101D60000022AF83E58290F7D9F0EFA3F090F7BBA4
:101D7000E06034D2919003E8123C84C2919003E871
:101D8000123C84D2919003E8123C84C2919003E803
:101D9000123C84D2919003E8123C84C2919003E8F3
:101DA000123C8490FFFF2290F7D9E0FEA3E0FF7D74
:101DB0000090F7ACEEF0EFA3F0EDA3F090F7AFE5F5
:101DC00039F0E53AA3F090F7BB7401F090000022DF
:101DD0007F007E0290DE0EE4F090F7AFE0FCA3E01F
:101DE000FDC3EC9420ED940040047B2080068C031E
:101DF0007F017E0A8B017A00ECC399FCED9AFD907D
:101E0000F7AFECF0EDA3F08B05ED603690F7ACE0AA
:101E1000FAA3E0FBA3E0FC8A828B838CF012449847
:101E200090DE20F090F7ACE0FAA3E0FBA3E0FC0A20
:101E3000BA00010B90F7ACEAF0EBA3F0ECA3F01DB5
:101E400080C790DE11E0FD4EF0EF600590F7BBE437
:101E5000F02290F7BB7402F07582002290F7B1E097
:101E6000FDA3E0FEA3E0FF90DE11E0FCB40100E47E
:101E700033FC20E0F290DE0EE4F090DE16E0FC7B16
:101E80000090F7B4ECF0EBA3F090F7BAE0FC30E18F
:101E90001390F7BB7403F090DE11E0FC74044CF077
:101EA00090FFFF2290F7BAE04402F090F7B4E0FB15
:101EB000A3E0FCC374209BE49C501CD29190012CA5
:101EC000C007C006C005123C84C29190012C123C90
:101ED00084D005D006D00790F7B4E0FBA3E0FC8DDA
:101EE00007EB4C601690DE20E0FD8F828E83F0A31E
:101EF000AF82AE831BBBFF011C80E6E52C452D6045
:101F000009852C82852D8312008990F7B4E0FEA309
:101F1000E0FFC3EE9420EF9400501DE52A452B60AE
:101F200009852A82852B8312008990DE11E0FF74D7
:101F3000084FF090F7BBE4F090DE11E0FF74404FE3
:101F4000F090F7B4E0FEA3E08E82F5832285822E26
:101F500085832F228582308583312275370175383C
:101F60000090002575F040021CEEAFF0AE83E582D4
:101F700090F7DBF0EEA3F0EFA3F090F7DBE0FDA32A
:101F8000E0FEA3E0FF74022DFDE43EFE8D828E8311
:101F90008FF0124498FDA31244988D2575220122DA
:101FA000AF827DE27E46E4BF030104FC600874EE6C
:101FB000B513037513048D828E83A3E090F7DEF0D2
:101FC0009013E0E0F8A3E0F9A3E0FAA3E0FBE4B8A3
:101FD000400AB96C07BA6104BB730104FBAA1390F1
:101FE000F7DEE0F9B9FF02804DE9B50732EC600C8D
:101FF000BA0309EB60067DE47E13803AEA7008902C
:10200000F7DE74FFF080D81A8D828E83E02DFDE418
:102010003EFE8D828E83A3E0F990F7DEF080C08DC6
:10202000828E83E02DFDE43EFE8D828E83A3E0F957
:1020300090F7DEF080A98D828E8322AFF0AE83E52B
:102040008290F7DFF0EEA3F0EFA3F090F7DFE0F57A
:102050003DA3E0F53EA3E0F53F7402253DFAE435EB
:102060003EFBAC3F8A828B838CF0124498F8A3121B
:102070004498F9893B753C007402B53B06E4B53CD5
:102080000280227407B53B06E4B53C028002804220
:1020900074AF58FE7F008A828B838CF0EE1243016E
:1020A000A3EF1243018A828B838CF0124498FAA327
:1020B000124498F5828A13121FA0AE82AF8390F764
:1020C000E2EEF0EFA3F08E828F83A3A3E0FE7F0009
:1020D000801C89828813121FA0AC82AD8390F7E226
:1020E000ECF0EDA3F08C828D83E0FCFE7F007406A3
:1020F000253DFBE4353EFCAD3F8B828C838DF01299
:102100004498FCA3124498FDC3EC9EED9F50048CB0
:10211000068D07EE4F700990DE11E0FD74204DF042
:1021200090F7E2E0FCA3E0FD8E398F3A8C828D833C
:10213000021D6290DE0EE4F090DE11E0FF30E40E4E
:1021400090F7BBE4F090DE11E0FE74804EF0EF30CB
:10215000E22490DE11E4F090FC467404F090F7BBAA
:10216000E4F0D291900014C007123C84C291900018
:1021700014123C84D00790F7BBE0FEBE0319D29145
:10218000900032C007123C84C291900032123C840D
:10219000D00790F7BBE4F090F7BBE0600302247334
:1021A000EF20E00302247390DE0EE4F090DE16E0F0
:1021B000FFFE7B407C007D40EE601690DE20E0FA62
:1021C0008B828C838DF0124301A3AB82AC831E8083
:1021D000E7E540FE20E70302234674605EFD6015DC
:1021E000BD2003022300BD400302230CBD60030297
:1021F000233102245B741F5EFF7041AD41BD0002BC
:10220000801CBD06028005BD0826800C900040752C
:10221000F04012203B02245B121F5B02245B7537E7
:10222000027538009046C075F080121CEE02245BE7
:1022300090004075F04012305602245BBF0145AD5E
:1022400041BD00028005BD0A26801275370275382F
:10225000009046C075F080121CEE02245B753701B9
:102260007538009046C375F080121CEE02245B9016
:10227000DE11E0FD74204DF090004075F04012300A
:102280005602245BBF0236AD41BD00028008BD127C
:102290000302245B80127537027538009046C075C2
:1022A000F080121CEE02245B90DE11E0FD74204DE4
:1022B000F090004075F04012305602245BBF032BB3
:1022C000E4B541127537027538009046C075F0804C
:1022D000121CEE02245B90DE11E0FD74204DF090A4
:1022E000004075F04012305602245B90004075F0BB
:1022F0004012305690DE11E0FD74204DF002245B58
:1023000090DE11E0FD74204DF002245BE52E452F98
:102310006013122317800BC02EC02F90004075F061
:10232000402202245B90004075F04012248A02246F
:102330005B90DE11E0FD74204DF090004075F040A0
:1023400012305602245B74605EFD6015BD200302EE
:102350002412BD4003022426BD6003022449022446
:102360005B741F5EFF7048AE41BE010302245BBE7A
:10237000030302245BBE0502800BBE070302245B3D
:10238000BE0917800990DE00E542F002245B900050
:102390004075F040121F6A02245B90004075F040C7
:1023A00012305690DE11E0FE74204EF002245BBF26
:1023B0000129AE41BE010302245BBE030302245B7C
:1023C000BE110302245B90004075F040123056901D
:1023D000DE11E0FE74204EF002245BBF0220AF410C
:1023E000BF01028076BF0302807190004075F0400B
:1023F00012305690DE11E0FF74204FF0805D90DEC9
:1024000011E0FF74204FF090004075F040123056FC
:10241000804990004075F04012305690DE11E0FF88
:1024200074204FF08035E52E452F60121224318044
:102430000BC02EC02F90004075F04022801D9000F0
:102440004075F04012248A801290DE11E0FF742063
:102450004FF090004075F04012305690DE11E0FFD2
:1024600074404FF0E5464547700990DE11E0FF7477
:10247000084FF090F7BBE0FFBF0103121DD090F7AB
:10248000BBE0FFBF0203021E5C22AFF0AE83E58219
:1024900090F7E4F0EEA3F0EFA3F090F7E4E0FDA3F3
:1024A000E0FEA3E0FF8D828E838FF0124498FC2023
:1024B000E7030226A574012DFAE43EFB8F048A820D
:1024C0008B838CF0124498FC6025BC01028032BCE6
:1024D00002028043BC0303022553BC040302258887
:1024E000BCFD030225A5BCFE0302265F02270B7577
:1024F000370275380090FC4575F000121CEE02277B
:102500000B90DE00E0FC7B007539288B3A8C828BC7
:1025100083121D6202270B74022DFAE43EFB8F0426
:102520008A828B838CF0124498FAA3124498FB742D
:10253000062DF8E43EF98F04888289838CF01244DA
:1025400098F539A3124498F53A8A828B83121D625A
:1025500002270B8D028E038F048A488B498C4A74A4
:10256000062DF8E43EF98F04888289838CF01244AA
:1025700098F537A3124498F53885488285498385B4
:102580004AF0121CEE02270B90F7B1E0FAA3E0FB31
:10259000A3E0FC753910753A008A828B838CF012A7
:1025A0001D6202270B74042DFAE43EFB8F048A821D
:1025B0008B838CF0124498F8A3124498F9B80477EE
:1025C000B90074745B4447606EC002C003C00474F9
:1025D000062DF8E43EF98F04888289838CF012443A
:1025E00098F548A3124498F54990475BE493FC8C16
:1025F0004B754C00C3E54B9548E54C9549D004D04C
:1026000003D002501A854B39854C3A90475BC00481
:10261000C003C002121D62D002D003D0048018850E
:10262000483985493A90475BC004C003C002121D77
:1026300062D002D003D0048A828B838CF01244983B
:10264000FAA3124498FBBA0505BB000280030227D7
:102650000BE4F539F53A900000121D6202270B7465
:10266000022DFAE43EFB8F0490FC4B74C5F07446D7
:10267000A3F07480A3F07513047514008A828B8311
:102680008CF0123D50E5828583F045F06012D291C6
:1026900090012C123C84C29190012C123C84806BDE
:1026A00075C983806690F7D1E0FCBC015674022D99
:1026B000FDE43EFE8D828E838FF0124498FDA312BE
:1026C0004498FE90DE0EE4F090DE16E0FF7C00758C
:1026D00012088F828C83C007C006C005C004123C5C
:1026E000D0D004D005D006D007EF4C601690DE2085
:1026F000E0FB8D828E83F0A3AD82AE831FBFFF010E
:102700001C80E690F7BAE054FDFFF09000002290A4
:10271000F7CCE0FF30E10A90FC467405F090FFFF33
:102720002290DE0E7405F090DE16E0FF8F4D754EA0
:102730000090DE17E0FCE4254DF54DEC354EF54EEE
:1027400090F7CAE0FCA3E0FD4C705890F7C6E4F0A7
:10275000A3F090DE2AE090F7C8F090DE2AE090F730
:10276000C9F090DE2AE0FD7C0090F7CAEDF0ECA302
:10277000F090DE2AE0FAE4FB2DFDEA3CFC90F7CA7B
:10278000EDF0ECA3F0E54D24FCF54DE54E34FFF5FE
:102790004EC374049D74029C500990F7CA7404F0EF
:1027A00003A3F0E52955D16012D291900014123C98
:1027B00084C291900014123C8480E890F7C3E0FB3F
:1027C000A3E0FCA3E090F7C6E0FAA3E0FFEA2BFB4E
:1027D000EF3CFC7480252942D685268285278374A8
:1027E000DEF0852682852783A3742AF085268285DC
:1027F0002783A3A38C07EFF0852682852783A3A3D5
:10280000A3EBF0852682852783A3A3A3A3A3A3A379
:10281000E0543FF0852682852783A3A3A3A3A3A327
:10282000A3E054CF4410F074052526FEE43527FFBD
:1028300090DE16E0FD8E828F83EDF074042526FE77
:10284000E43527FF90DE17E08E828F83541FF5F06A
:10285000E054E045F0F090F7C6E0FEA3E0FFEE257F
:102860004DFCEF354EFDC374049C74029D500B74F7
:1028700004C39EF54D74029FF54EC37440954DE41C
:10288000954E502890FC467406F090DE14E0FD74DE
:10289000FE5DF0751204900005123CD07512108593
:1028A0004D82854E83123CD090FFFE22E52942D610
:1028B000E52942D7E54D2EFEE54E3FFF90F7C6EEE7
:1028C000F0EFA3F0E52955D160FAE529F452D19053
:1028D000F7C6E0FEA3E0FF90F7CAE0FCA3E0FDC36B
:1028E000EE9CEF9D402C90F7CCE04402F090F7CAAC
:1028F000E4F0A3F090DE0E7405F0AE2374BF55240F
:10290000FF8E238F2490DE14E0FF74FE5FF09000B2
:10291000012290DE0E7405F0AE2374BF5524FF8EA5
:10292000238F2490DE14E0FF74FE5FF090000022FD
:1029300090F7CCE0FF20E1012290F7C3E0FDA3E097
:10294000FEA3E0FF90F7E7EDF0EEA3F090F7C8E00C
:10295000F55674FFB556028003022DC290F7C9E008
:10296000FBBB80005003022DA4EB246F5003022D0B
:10297000A4EB2480FA240A83F582EA241583F583E4
:10298000E473A439CF0CEC23445B947DA4A4A4A4E9
:10299000FC2F8B292A2B2C2A2C2C2C2C2C2D2D2D4A
:1029A0002D2C2D2D8D828E838FF0124498FA740178
:1029B0002DF551E43EF5528A5475550090F7CAE55D
:1029C00054F0E555A3F0855182855283E0F55374A8
:1029D000012551F556E43552F557A9538902E4F91A
:1029E0002554F554EA3555F55590F7CAE554F0E508
:1029F00055A3F0855682855783E0F885518285522C
:102A000083A3A3884F8950E0FAE4254FF54FEA35B8
:102A100050F550854F3585503690F7C8E0FA90F75D
:102A2000C9E0F5328554338555348A82121A3590BF
:102A3000F7CAE4F0A3F0022DBA8D828E838FF012D4
:102A40004498FA8D828E83A38A4F755000E0FA7401
:102A5000022DF556E43EF5578A018902E4254FF52B
:102A60004FEA3550F550A84FAA5090F7CEE8F0EA5B
:102A7000A3F090F7C6E0F9A3E0FAE924FEF54FEAE7
:102A800034FFF550854F54855055E5544555603D0C
:102A900090F7CEE0F551A3E0F55274012551F9E429
:102AA0003552FA90F7CEE9F0EAA3F08556828557C1
:102AB00083E0FAA3858256858357855182855283A8
:102AC000EAF0155474FFB55402155580BD90F7C84F
:102AD000E0FA90F7C9E0F5327535CA7536F7753307
:102AE000027534008A82121A35022DBA90F7CCE0B2
:102AF000FA20E23C8D828E838FF0124498FA8D8208
:102B00008E83A38A4F755000E0FA90F7E774022D88
:102B1000F0E43EA3F08A018902E4F9254FF54FEA7B
:102B20003550F550A84FAA5090F7CEE8F0EAA3F040
:102B300090F7CAE0F9A3E0FA894F8A50C374409530
:102B40004FE495505006754F40755000E9C3954FBE
:102B5000F9EA9550FA90F7CAE9F0EAA3F090F7E79E
:102B6000E0F554A3E0F555854F56855057E5564599
:102B700057603D90F7CEE0F551A3E0F55274012582
:102B800051F9E43552FA90F7CEE9F0EAA3F0855412
:102B900082855583E0FAA3858254858355855182C9
:102BA000855283EAF0155674FFB55602155780BD5D
:102BB00090F7C8E0FA90F7C9E0F5327535CA753676
:102BC000F77533027534008A82121A35022DBAD293
:102BD00091900002C007C006C005123C84C29190CB
:102BE0000002123C84D005D006D00790F7C8E0FA66
:102BF00090F7C9E0F53290F7C6E0F533A3E0F5347D
:102C00008D358E368A82121A35022DBA7535CA75FF
:102C100036468B3275330D753400855682121A355F
:102C2000022DBA90FC47E0F8A3E0F9A3E0A3E08806
:102C30003589368B32753304753400855682121A05
:102C400035022DBA7535AF7536468B327533117531
:102C50003400855682121A35022DBA90F7C6E0F577
:102C600033A3E0F5348B328D358E36855682121AB9
:102C7000359000C8123C84123178022DBA7535A601
:102C80007536468B32753309753400855682121AB3
:102C900035022DBA8D828E838FF0124498FC740118
:102CA0002DF9E43EFABC0202800ABC03028021BC7A
:102CB0000429800DC002C001123241D001D002802F
:102CC0001AC291C002C00112328BD001D002800B17
:102CD000C002C001123262D001D00290F7C8E0FCFD
:102CE00090F7C9E0F53290F7C6E0F533A3E0F5348C
:102CF00089358A368C82121A35022DBA90F7CA7439
:102D000001F0E4A3F07535367536DF90F7C8E0FCC6
:102D100090F7C9E0F53290F7CAE0F533A3E0F53457
:102D20008C82121A3590F7CAE4F0A3F0022DBA8D06
:102D3000028E048C017C0090FC4B74D8F07446A386
:102D4000F07480A3F07513098C148A8289838CF047
:102D5000C007C006C005123D50E5828583F0D0054E
:102D6000D006D00745F0705275C98090F7C8E0FCD6
:102D700090F7C9E0F53290F7C6E0F533A3E0F534FB
:102D80008D358E368C82121A35802F90FC45E4F0FA
:102D900090FC46F090F7E9EDF0EEA3F07582021298
:102DA0002DEA801690F7C6E0F533A3E0F5348B32B8
:102DB0008D358E36855682121A3590F7CCE054FD4B
:102DC000F022E5304531601985308285318312006B
:102DD00089AE82AF83EE4F701090F7CCE054FDF0D7
:102DE0002290F7CCE054FDFFF022E58290F7EBF063
:102DF00090F7CCE054FDF090F7C8E0FF90F7C9E001
:102E0000F53290F7EBE0FE8E3375340090F7E9E091
:102E1000F535A3E0F5368F82021A35E52330E0114F
:102E200075220274FE5523FEAF248E238F2443BEE9
:102E300001E5235406602F90FC45740AF0752203C7
:102E400074FD5523FEAF248E238F2490DE01E0FF16
:102E500074044FF0900008123C8490DE01E0FF748F
:102E6000FB5FF075220190DE0EE4F090DE11E0FFD2
:102E700030E21A90DE11E0FF74DB5FF090F7AFE410
:102E8000F0A3F090F7B4F0A3F090F7BBF090DE0E53
:102E90007405F090DE11E0FF30E52090DE11E0FFD8
:102EA00074CF5FF090FC467408F090F7C1E4F0A393
:102EB000F090F7C6F0A3F090F7CDF090DE14E0FFAD
:102EC00030E62090DE14E0FF749F5FF090FC4674C3
:102ED00008F090F7C1E4F0A3F090F7C6F0A3F090EB
:102EE000F7CDF0E52320E2057404B52214121B96F9
:102EF00090FC45740BF074FB5523FEAF248E238F9A
:102F000024E52330E41112213374E75523FE740FB6
:102F10005524FF8E238F24E52430E65490FC45741D
:102F20000CF012270FAE82AF83BEFE41BFFF3E9072
:102F3000F7EC7406F0E4A3F090F7C8E0FF90F7C94F
:102F4000E0F5327535EC7536F77533027534008F60
:102F500082121A3590F7C8E0FF7535EC7536F775B3
:102F600032017533027534008F82121A35122930FE
:102F7000E52354E07006E52454BD602990FC4674B6
:102F800009F0751208900044123CD08523828524F4
:102F900083751210123CD074E05523FE74BD552485
:102FA000FF8E238F2422C0E0C082C083C007C006EA
:102FB000C005C004C0D075D000E5BE30E6FB90DE91
:102FC00006E0FF7E00E5234207E52442068F238EBC
:102FD0002490DE02E0FDE4CDC4CD6DCD54F0CD6D86
:102FE000FCED4207EC42068F238E2490DE04E025A0
:102FF000E0FCE4FD4207EC42068F23EEF52430E1CD
:103000001290F7CCE054FEF0AE2374FD5524FF8EF1
:10301000238F24758B00C2E8D0D0D004D005D00611
:10302000D007D083D082D0E032C0E0C007C0D075D6
:10303000D000E5BE30E6FBC2AFE58930E70375227C
:1030400003AFBE74FC5FF5BE758900C2C5D2AFD0B8
:10305000D0D007D0E03222AF83E58290F7EEF0EFD8
:10306000A3F090F7EEE0FEA3E0FF7C007D008E026F
:103070008F038A828B83E0F9A3AA82AB83E960077E
:103080000CBC00EE0D80EB7532F08C338D348E3538
:103090008F367582FE021A35AF83E58290F7F0F025
:1030A000EFA3F090F7F0E0FEA3E0FF7C007D008E40
:1030B000028F038A828B83E493F9A3AA82AB83E90C
:1030C00060070CBC00ED0D80EA8E358F367532F04E
:1030D0008C338D347582FE021A35E58290F7F2F05A
:1030E0007535F27536F77532F17533017534007543
:1030F00082FE021A35AF83E58290F7F3F0EFA3F07A
:103100007535F37536F77532F2753302753400751F
:1031100082FE021A35AF82AE83ADF0FC90F7F5EF78
:10312000F0EEA3F0EDA3F0ECA3F07535F57536F7EE
:103130007532F37533047534007582FE021A357EDC
:10314000F97FF78FD57EF97FF78ED47E017FF88FD8
:10315000D37E017FF87F008ED28F137514188F15E0
:1031600090F7F975F0000242417403B50D047582C1
:10317000FF22850D82050D2290DF46E0FFBFF00E95
:1031800090DF47E0FFBF0D0690DF487469F0C2AFE3
:10319000759A0075B80075A800121CEBAFBE747F5D
:1031A0005FF5BE75D69FC291020000221242B5ACF7
:1031B00082AD83AEF0FFC004C005C006C0079037E3
:1031C000BD75F086743D12413DAC82AD83AEF0FF1B
:1031D000E58124FCF581E4C0E0C0E074C0C0E07487
:1031E00041C0E08C828D838EF0EF1243D5AC82AD6E
:1031F00083AEF0FFE58124FCF5818C828D838EF017
:10320000EF1242C8AC82AD83AEF090DF09EEF08DD4
:103210000390DF0AEBF090DF0BECF02275E10490F5
:10322000DF3BE0FFBF01F890FC1CE0F5E190FC1CE7
:10323000E0FFBF04012290DF3BE0FFBF010280ED11
:103240002290FC1CE0FFBF02012290DF13E0FF741C
:10325000F05FF0E0FF740F4FF090FC1C7402F0027E
:10326000368090FC1CE0FFBF03012290DF13E0FFDB
:1032700074F05FF0E0FF740A4FF090FC1C7403F0F0
:10328000F5E190DF3BE0FFBF13F82290FC1CE0FF6C
:10329000BF04012290DF13E0FF74F05FF0AF917480
:1032A000EF5FF59175E10490DF3BE0FFBF01F8AF00
:1032B0009B74FC5FF59BAFE974EF5FF5E990FC1C34
:1032C0007404F02290FC1FE4F0A3F090FC12F0A331
:1032D000F090FC14F0A3F053C6C7759D00859E9E28
:1032E000439E0485A9A943B90190FC1C7404F075A0
:1032F0001300751400F51590F81275F00012424194
:103300001218E5D2A87591D175E900750E00439A9F
:103310000175E10490DF3BE0FFBF01F8227E007FF2
:1033200000C3EE94DCEF9405502490DF3CE0FD54A4
:1033300050600490000122900032C007C006123C89
:10334000B2D006D00774322EFEE43FFF80D3900047
:103350000022AF83E58290FC3CF0EFA3F090FC3EAE
:10336000E4F090DF02E0FF90DF3BE0FEBE130BB223
:1033700091C007122E1BD00780EDC29190FC8AE409
:10338000F090FC38E0FDA3E0FE90FC80EDF0EEA3B1
:10339000F090FC3AE0FBA3E0FC90FC86EBF0ECA3A1
:1033A000F090FC36E0F9A3E0FA90FC82E9F0EAA3A1
:1033B000F090FC84E9C39BF0EA9CA3F090FC84E0CD
:1033C000FBA3E0FC8D138E148B828C83C007C00698
:1033D000C005C002C00112431CAB82AC83D001D037
:1033E00002D005D006D00790FC88EB29F0EC3AA378
:1033F000F0E94A705D90FC3CE0FBA3E0FC8B828C22
:1034000083E0F8880F75100090FC36E50FF0E510AA
:10341000A3F090DF04E0F8530003B800028018B86E
:10342000010280030234E490FC367401250FF0E4BD
:103430003510A3F00234E490FC3C74012BF0E43C22
:10344000A3F090FC36E0FBA3E0FC90DF02EBF0027F
:1034500034E490DF04E0FC530403BC00028046BC6B
:10346000010280030234E490FC3CE0FBA3E0FC900A
:10347000FC3FE9F0EAA3F090FC417401F0E4A3F012
:103480008B828C83C007C002C001123C2FD001D0B8
:1034900002D00790FC3CE0FBA3E0FC89008B828C0F
:1034A00083E8F0803FED4E603690FC88E0FDA3E0BD
:1034B00090DF02EDF090DF04E0FE74FC5EF090FC23
:1034C00088E0FDA3E0FEC374FF9DE49E500990DFF9
:1034D00004E0FE74024EF090FC8A7401F0800590C6
:1034E000DF02E9F0D2A890FC8BE0FE20E303023675
:1034F0001290DF04E0FE530603BE010690FC3E740A
:1035000001F090FC3EE0FE90FC3CE0FCA3E0FDEE10
:103510002CFAE43DFB90FC36E0F8A3E0F990FC5D6A
:10352000E8F0E9A3F08A828B83C007C006C005C01B
:1035300004123F7EAA82AB83D004D005D006D00708
:1035400090FC8BE0F9530104B90448C007EE2CF855
:10355000E43DF990FC8BE0FF5307F090FC61E8F04C
:10356000E9A3F090FC63EAF0EBA3F090FC65EFF0C8
:1035700088828983C007C006C005C004C003C0029A
:10358000123FB8D002D003D004D005D006D007D067
:10359000078046C007EE2CF8E43DF990FC8BE0FF75
:1035A0005307F090FC68E8F0E9A3F090FC6AEAF0B9
:1035B000EBA3F090FC6CEFF088828983C007C00613
:1035C000C005C004C003C002124001D002D003D025
:1035D00004D005D006D007D007EE601E90FC8BE02B
:1035E000FE5306F0BE50098C828D837410F0802249
:1035F0008A068C828D83EEF0801890FC8BE0FE535F
:1036000006F0BE500890DF027410F0800590DF02D3
:10361000EAF090FC3CE0FDA3E0FE90FC18EDF0EE3B
:10362000A3F090FC7EE4F0A3F075E1037D607EEAF8
:1036300090DF3BE0FCBC1302801C1DBDFF011EEDB2
:103640004E6013B291C007C006C005122E1BD005F4
:10365000D006D00780DAD291ED4E700690FC467409
:1036600013F090DF3BE0FEBE130BB291C007122EA9
:103670001BD00780EDC29190DF02EFF0758201222E
:10368000D2A875130075140075150290F81275F024
:103690000012424190FC12E4F0A3F090FC14F0A35D
:1036A000F090FC16F090FC1704F090F811E4F0AFE5
:1036B0009B74FC5FF59BAFE974EF5FF5E975E10280
:1036C00090DF3BE0FFBF0DF84391102290FC8D741A
:1036D00001F02290FC8DE4F022C021C0E0C0F0C0D7
:1036E00082C083C007C006C005C004C003C002C0BA
:1036F00001C000C0D075D00090FC457411F0C289A3
:1037000090DF3BE0FFBF0D028003023823D291908F
:10371000FC77E0E0602A90FC78E0FEA3E0FF90FCFC
:1037200078E024FFFCA3E034FFFD90FC78ECF0EDA2
:10373000A3F074FF2F400990DF04E0FF74FC5FF0FA
:1037400090FC1C7402F090F811E025E0FEE42412D5
:10375000FFEE34F8FEE075F002A42412FC74FC3590
:10376000F0FD8C828D83E0FAA3E0FB74012AF8E47B
:103770003BF98C828D83E8F0E9A3F0EA2FF582EB28
:103780003EF583E5D9F090F811E075F002A424121B
:10379000F58274FC35F0F583E0FEA3E0FFC39402EC
:1037A000501A90F811E075F002A42412F58274FC0E
:1037B00035F0F583E0FEA3E0FF4E701A90F811E0BB
:1037C000FF75F002A42412F58274FC35F0F58374C1
:1037D000FFF07401A3F090FC78E0A3E090FC78E0A7
:1037E000F5F0A3E045F060030239E090FC77E0E0FB
:1037F00070030239E090FC7AE0FEA3E0FF90FC78D1
:10380000EEF0EFA3F090FC78E0FEA3E090DF02EE94
:10381000F090DF04E0FF74FC5FF0E0FF74024FF013
:103820000239E090DF3BE0FFBF130280030239E082
:1038300090FC8AE0E0700302397190FC2EE0FEA358
:10384000E0FF0EBE00010F90FC2EEEF0EFA3F09013
:10385000FC7EE0FEA3E0FF90FC82E0FCA3E0FDEE36
:10386000B50406EFB50502800302394490FC80E000
:10387000A3E090FC80E0F5F0A3E045F0603790FC19
:1038800080E0FEA3E0FFBEFF05BF0002801490FCB5
:1038900080E024FFFEA3E034FFFF90FC80EEF0EF19
:1038A000A3F090FC86E0FEA3E0FF90FC7EEEF0EF3C
:1038B000A3F002394490FC82E0F513A3E0F51490E4
:1038C000FC7CE0FF7E008F828E8312431CAE82AFB1
:1038D0008390FC18E0FCA3E0FDEE2CF582EF3DF5B3
:1038E00083E4F090FC7CE02401F0E0FF90FC7DE0BC
:1038F000FEEFB5060590FC7CE4F090FC82E0F51349
:10390000A3E0F51490FC7CE0FF7E008F828E831292
:10391000431CAE82AF8390FC18E0FCA3E0FDEE2CCC
:10392000FEEF3DFF8E828F83E0701090FC21E4F06B
:1039300090FC467412F012321CC29190FC7E74010D
:10394000F0E4A3F090FC88E0FEA3E0FF90FC88E0A8
:1039500024FFFCA3E034FFFD90FC88ECF0EDA3F025
:10396000BEFF22BF001F90DF04E0FF74FC5FF08009
:103970001490FC88E024FFFEA3E034FFFF90FC8855
:10398000EEF0EFA3F090FC1C7403F090FC82E0F5E5
:1039900013A3E0F51490FC7CE0FF7E008F828E8301
:1039A00012431CAE82AF8390FC7EE0FCA3E0FD904E
:1039B000FC7EE02401F0A3E03400F0EC2EFEED3FAD
:1039C000FF90FC18E0FCA3E0FDEE2CF582EF3DF546
:1039D00083E0F5D990FC1AE02401F0A3E03400F074
:1039E000D0D0D000D001D002D003D004D005D00672
:1039F000D007D083D082D0F0D0E0D02132C021C017
:103A0000E0C0F0C082C083C007C006C005C004C0CB
:103A100003C002C001C000C0D075D0007511009075
:103A2000FC457410F0AE9B74FC5EF59BE5E9420E1C
:103A3000E5E930E02090FC1DE0FDA3E08D067D006F
:103A4000AB9C7C0090FC1FED4BF0EE4CA3F0AEE97C
:103A500074FE5EF5E9E5E954707003023BE090FC0A
:103A60001CE0FEBE030AAE0E748F5EF50E023BD95B
:103A700090F811E0FEB40100E4332416F582E4343A
:103A8000FCF583E0FEBE01028003023BB690FC8B96
:103A9000E0FE20E103023B8F90DF04E0FE530603CB
:103AA000BE010375110190FC8BE0FE530601BE01BF
:103AB0007090F811E025E0FDE42412FEED34F8FDED
:103AC000AB117C00EB2EFEEC3DFDE0F929FAE4247D
:103AD00012F9EA34F8FAEB29FBEC3AFCE075F00253
:103AE000A42412F58274FC35F0F583E0F9A3E0FA22
:103AF000A8117F00E9C398F9EA9FFA90FC8BE0FFD8
:103B00005307F090FC61EBF0ECA3F090FC63E9F05C
:103B1000EAA3F090FC65EFF08E828D83123FB880AF
:103B20006E90F811E025E0FEE42412FFEE34F8FE7A
:103B3000AC117D00EC2FFFED3EFEE025E0FAE42421
:103B400012FBEA34F8FAEC2BFCED3AFDE075F002DA
:103B5000A42412F58274FC35F0F583E0FAA3E0FBAF
:103B6000A8117900EAC398FAEB99FB90FC8BE0F975
:103B70005301F090FC68ECF0EDA3F090FC6AEAF0E1
:103B8000EBA3F090FC6CE9F08F828E8312400190E1
:103B9000F811E0FF74016FF0E0FF75F002A4241249
:103BA000F58274FC35F0F583E4F0A3F090FC16F098
:103BB00090FC17F0802190FC467412F0B29190F8BE
:103BC00011E0FF75F002A42412F58274FC35F0F5C3
:103BD00083E4F0A3F0B291C291AFE974CF5FF5E94D
:103BE000E5E930E61490FC467410F0B29112321CF4
:103BF000B291AFE974BF5FF5E9E5E930E71490FCF5
:103C0000467411F0B29112321CB291AFE9747F5F29
:103C1000F5E9D0D0D000D001D002D003D004D00537
:103C2000D006D007D083D082D0F0D0E0D02132AF00
:103C300083E58290FC43F0EFA3F090FC41E0FEA30B
:103C4000E0FF90FC43E0FCA3E0FD90FC3FE0FAA322
:103C5000E0FB8A008B011ABAFF011BE8496024EEE1
:103C60002AF8EF3BF9E82CF8E93DF9EA2CF582EB6C
:103C70003DF583C006C007E088828983F0D007D075
:103C80000680CF22AE82AF831EBEFF011FC3E49E1B
:103C900074808FF063F08095F050167C4C7D04ECBE
:103CA00024FFFAED34FFFB8A048B05EA4B70F080A9
:103CB000D722AE82E583CE25E0CE33FF1EBEFF01C4
:103CC0001FC3E49E74808FF063F08095F040ED2276
:103CD000AE82AF83D2919003E8C007C006123C8445
:103CE000C2919001F4123C84D006D0071512AD1297
:103CF000ED20E754EE30E024900019C007C006C064
:103D000005123C84D291900226123C84C29190000C
:103D100019123C84D005D006D0078022900113C030
:103D200007C006C005123C84D291900032123C8438
:103D3000C291900113123C84D005D006D007EFC386
:103D400013CE13CEFF1D80A8C2919003E8023C84DD
:103D5000AFF0AE83E58290FC4EF0EEA3F0EFA3F05F
:103D600090FC4EE0FDA3E0FEA3E0FF90FC4BE0FAE8
:103D7000A3E0FBA3E0FCA813A914E8496050C0002D
:103D8000C0018D828E838FF0124498F98A828B83D2
:103D90008CF0124498F8E9C398F98915D001D00045
:103DA0006010E515F5163395E0F517851682851731
:103DB00083220DBD00010E90FC4EEDF0EEA3F0EF5E
:103DC000A3F00ABA00010B18B8FF011980AC9000EB
:103DD0000022AFBE74FB5FF5BEE5BE30E6FBAFC6AA
:103DE00074B85FF5C6E5C620E6FB43BE04E5BE3009
:103DF000E6FB53C6C743E40C43E401D2B92243FEB9
:103E000003C29122C0E0C082C083C0D090FC47E0D2
:103E10002401F0A3E03400F0A3E03400F0A3E03488
:103E200000F0D0D0D083D082D0E032123169AF829E
:103E300090FC55EFF08FF005F07401800225E0D57D
:103E4000F0FB90FC56F0EF75F008A424F9FE74F72F
:103E500035F0FF90FC51EEF0EFA3F08E828F83A33C
:103E6000A374DFF08E828F83A3A3A374B1F08E823C
:103E70008F83A3A3A3A3A37410F074062EF582E48A
:103E80003FF583E054E0441DF074072EF582E43FD3
:103E9000F583E0543F4440F074072EF582E43FF58B
:103EA00083E054FC4401F0123169AF8290FC57EF7B
:103EB000F08FF005F07401800225E0D5F0FB90FC56
:103EC00058F0EF75F008A424F9FE74F735F0FF9070
:103ED000FC53EEF0EFA3F08E828F8374DFF08E82BE
:103EE0008F83A374B2F08E828F83A3A3A3A3A37442
:103EF00010F074062EF582E43FF583E054E0441E92
:103F0000F074072EF582E43FF583E054CF4410F0BF
:103F100074072EF582E43FF583E054FC4401F0433E
:103F2000A91043B91022AF83E58290FC5BF0EFA3A8
:103F3000F0E5B330E3FB90FC51E0FEA3E0FF90FC22
:103F40005BE0FCA3E0FD8C028D038B028E828F83ED
:103F5000EAF090FC51E0FEA3E0FF8E828F83A37D08
:103F600000ECF090FC56E042D690FC59E0FF90FC4B
:103F70005AE0FE4F4401F5B3E5B330E3FB22AF83D3
:103F8000E58290FC5FF0EFA3F090FC5FE0FEA3E021
:103F9000FF90FC5DE0FCA3E0FDEC540F60158C028B
:103FA0008D030CBC00010DEA2EF582EB3FF583E496
:103FB000F080E68C828D8322AF83E58290FC66F0F0
:103FC000EFA3F090FC66E0FEA3E0FF90FC61E0FC54
:103FD000A3E0FD90FC63E0FAA3E0FB90FC65E0F950
:103FE00090FC6FECF0EDA3F090FC71EAF0EBA3F025
:103FF00090FC73E4F090FC74E9F08E828F830240B1
:104000004BAF83E58290FC6DF0EFA3F090FC6DE088
:10401000FEA3E0FF90FC68E0FCA3E0FD90FC6AE0FA
:10402000FAA3E0FB90FC6CE0F990FC6FECF0EDA3E0
:10403000F090FC71EAF0EBA3F090FC737402F09046
:10404000FC74E9F08E828F8302404BAF83E582904F
:10405000FC75F0EFA3F0E5B330E3FB90FC75E0FEF8
:10406000A3E0FF90FC6FE0F519A3E0F51A90FC7453
:10407000E0FB74505BF51890FC73E0F94B4401FBD6
:10408000740149F51790FC71E0F513A3E0F514E411
:10409000F515F516C3E5159513E51695144001229F
:1040A000C00390FC51E0F8A3E0FBE5152EF9E516FE
:1040B0003FFA89048A058D0488828B83ECF090FC9A
:1040C00051E0FCA3E0FD8C828D83A3E9F090FC53CA
:1040D000E0FCA3E0FD8C828D83A3A3E5152519FCEC
:1040E000E516351AFD8C028D038B02EAF090FC5325
:1040F000E0FAA3E0FB8A828B83A3A3A3ECF090FCFD
:1041000058E0FD90FC56E0FC4D42D6D003E5186027
:1041100017E51324F0FCE51434FFFDECB51509EDAB
:10412000B516058517B380028BB3E5B330E3FB7496
:10413000102515F515E43516F5160240941241E0E8
:10414000BC00030243A7EF60FA30D502B2D1E58389
:10415000B4FF030243BDE582B4FF030243BD2583E0
:1041600040072482400B0243A724831450030243D8
:10417000BDF582EA8DF0A4A8F0EA8EF0A428F8E458
:1041800035F0F9EB8DF0A428E935F0F9E433CA8F66
:10419000F0A429F9EA35F0FAEBF88EF0A429F9EA4F
:1041A00035F0FAE433FBEC8DF0A429F9EA35F0FAA6
:1041B000E43BFBE88FF0A42AFAEB35F0FBE433CCC8
:1041C000FD8EF0A42AFAEB35F0FBE43CFCED8FF019
:1041D000A42BFBEC35F0FC20E70312420E024386D1
:1041E000AA82AB83A2F73392D1F5826002D2F7ACF8
:1041F000F0E58124F9F8E6FD08E6FE0886F008E619
:10420000A2F73392D5F5836002D2F7AFF02278049B
:10421000EC7011E58224F8500AF582E4C9CACBFC9F
:10422000D8EF22EC7820058220E713D5820122C343
:10423000E933F9EA33FAEB33FBEC33FCD8EA1582C5
:1042400022AC82AD83AE14AF15BE0004EF600C1F2C
:104250000FE513124301A3DEFADFF88C828D83226F
:10426000AD82AE83AFF08D188E198F1A85131B8522
:10427000141C85151DA816A9178803890418B8FFF2
:104280000119EB4C6025851B82851C83851DF0126E
:104290004498FCA385821B85831C8D828E838FF0BE
:1042A000EC124301A3AD82AE8380CE8518828519BE
:1042B00083851AF022FCABF0AA83A982749EC2D136
:1042C000F58212420E0243867F9E1242EF30D103E6
:1042D0000243A7C3EF9582500974FFF5F0F583F50B
:1042E000822279001244B489828A838BF0EC22AA5C
:1042F00082AB83A2F73392D1F5826002D2F7ACF0A1
:104300002220F71130F6138883A88220F509F6A839
:10431000837583002280FEF280F5F022E58285130A
:10432000F0A4C582C0F08514F0A4D0F025F0C583B8
:104330008513F0A42583F58322E513451460467A9E
:1043400001E51325E0F513E514334012F514E58279
:104350009513E583951440030A80E6C3E51413F52D
:1043600014E51313F513C3E5829513F5F0E5839572
:10437000144005F58385F082C3E51413F514E513A5
:1043800013F513DAE122B98003EA13B34010EA24EB
:1043900001FAE43BFBE43CFC50047C800582BC0059
:1043A0000EBB000BBA0008E4F5F0F583F58222A2FB
:1043B000D1E582138CF092F78B838A8222E4F58315
:1043C000F58275F080F4A2D11322E4F583F58275AD
:1043D000F0C0747F221241E030D502B2D1BF000993
:1043E000BC00030243CA0243BDBC00030243A7E56D
:1043F00083B4FF0BE582B4FF030243CA0243A7E57F
:1044000082B4FF030243BDC395835007247F400B52
:104410000243A724801450030243BDF582C3ED9AE2
:10442000EE9BEF9C40111582C3EA33F9EB33FAECB3
:1044300033FBE433FC8005E4CCCBCAF9C08275F0D1
:1044400019C3E99DEA9EEB9FEC9400D5F002802D04
:10445000400EE99DF9EA9EFAEB9FFBEC9400FCC349
:10446000B3E833F8E58233F582E58333F583C3E9B6
:1044700033F9EA33FAEB33FBEC33FC80C4B3E4F9F1
:1044800038FAE43582FBE43583FCD082500405829F
:104490007C8012420E02439E20F71430F61488836B
:1044A000A88220F507E6A88375830022E280F7E45E
:1044B0009322E0226040F82582500274FFF582E8E2
:1044C00024F8501ECCCBCAF9E4CC24F85014CBCA43
:1044D000F9E4CB24F8500BCAF9E4CA24F850037964
:1044E000002224086010F8C3EC13FCEB13FBEA1362
:1044F000FAE913F9D8F1227582002243616E6E6FDA
:10450000742063616C6C207472616E736D69745F8A
:104510006C6F6E67207768696C652046485353203E
:10452000486F7070696E67206F7220616C72656190
:1045300064792070726F63657373696E672074723B
:10454000616E736D69745F6C6F6E6721004D4143DE
:104550005F747828292072657475726E65642065B1
:1045600072726F72006E6576657220656E74657228
:1045700065642054580046485353786D6974206D23
:1045800065737361676520746F6F206C6F6E670071
:104590004648535320737461746520656E74657268
:1045A000696E672053594E4348494E472066726FE3
:1045B0006D2077726F6E6720737461746500535954
:1045C0004E43485F4D4153544552202D3E20535990
:1045D0004E43494E474D415354455200464853536C
:1045E000786D697420646F6E65006E6574776F72A4
:1045F0006B207061636B65742873796E6329006E3C
:104600006574776F726B207061636B657428646981
:1046100073636F766572792900637261702C207004
:104620006C65617365207573652046485353786DDA
:104630006974282920696E7374656164210064724D
:104640006F706F75742066696E616C207761697434
:104650002100746F74616C206279746573207478C2
:104660003A00756E64657272756E00627566666595
:1046700072206572726F72007374696C6C2077615E
:104680006974696E67206F6E20746865206C617351
:1046900074207061636B6574004E4F204445414C3B
:1046A000005253544E005344434376333530004454
:1046B0004F4E53444F4E474C4520723535333500ED
:1046C00000000000005253544E00554E494D504CCE
:1046D000454D454E5445440052455345545F4E4F59
:1046E00057001201000200000020501D4860010127
:1046F000010203010A060002000000200100090275
:10470000200001010080FA0904000002FFFFFF0001
:10471000070585024000010705050240000104036A
:1047200009040C0352006600430061007400180382
:1047300044006F006E007300200044006F006E00A4
:1047400067006C0065000A0312034D005300460029
:104750005400310030003000FD00FF280000000050
:104760000104000100000000000000000157494E54
:10477000555342000000000000000000000000004F
:104780000000000000000000000100000000000028
:1047900000000000000000000000FFFFFFFFFFFF1F
:1047A000FFFFFFFFFFFFFFFFFFFFFFFFFFFFFFFF19
:1047B000FFFFFFFFFFFFFFFFFFFFFFFFFFFFFFFF09
:1047C000FFFFFFFFFFFFFFFFFFFFFFFFFFFFFFFFF9
:1047D000FFFFFFFFFFFFFFFFFFFFFFFFFFFFFFFFE9
:00000001FF
